:100000000C9462000C948A000C948A000C948A0070
:100010000C948A000C948A000C948A000C948A0038
:100020000C948A000C948A000C948A000C948A0028
:100030000C948A000C948A000C948A000C948A0018
:100040000C9498040C948A000C9466040C9440045C
:100050000C948A000C948A000C948A000C948A00F8
:100060000C948A000C948A000000000024002700F1
:100070002A0000000000250028002B0000000000DE
:1000800023002600290004040404040404040202DA
:100090000202020203030303030301020408102007
:1000A0004080010204081020010204081020000012
:1000B0000008000201000003040700000000000027
:1000C0000000E20411241FBECFEFD8E0DEBFCDBF99
:1000D00011E0A0E0B1E0EEE0F1E102C005900D9288
:1000E000A434B107D9F721E0A4E4B1E001C01D9226
:1000F000AD3EB207E1F710E0C2E6D0E004C02197C0
:10010000FE010E947A08C136D107C9F70E942A056C
:100110000C9485080C940000FC01538D448D252F10
:1001200030E0842F90E0821B930B541710F0CF9691
:10013000089501970895FC01918D828D981761F0C3
:10014000828DDF01A80FB11D5D968C91928D9F5F0E
:100150009F73928F90E008958FEF9FEF0895FC01B9
:10016000918D828D981731F0828DE80FF11D858D6C
:1001700090E008958FEF9FEF0895FC01918D228DFF
:10018000892F90E0805C9F4F821B91098F73992784
:1001900008958DE491E00E94BD0021E0892B09F4CF
:1001A00020E0822F0895FC01848DDF01A80FB11D8E
:1001B000A35ABF4F2C91848D90E001968F7399279D
:1001C000848FA689B7892C93A089B1898C9180648A
:1001D0008C93938D848D981306C00288F389E02D4B
:1001E00080818F7D80830895EF92FF920F931F93FC
:1001F000CF93DF93EC0181E0888F9B8D8C8D9813DA
:1002000005C0E889F989808185FD24C0F62E0B8D13
:1002100010E00F5F1F4F0F731127E02E8C8DE81237
:100220000CC00FB607FCFACFE889F989808185FFF9
:10023000F5CFCE010E94D300F1CF8B8DFE01E80FE8
:10024000F11DE35AFF4FF0820B8FEA89FB89808111
:10025000806207C0EE89FF896083E889F98980811F
:100260008064808381E090E0DF91CF911F910F91B6
:10027000FF90EF900895CF93DF93EC01888D882352
:10028000C9F0EA89FB89808185FD05C0A889B98903
:100290008C9186FD0FC00FB607FCF5CF808185FFDE
:1002A000F2CFA889B9898C9185FFEDCFCE010E944C
:1002B000D300E7CFDF91CF91089580E090E0892BC4
:1002C00029F00E94C90081110C9400000895CF927A
:1002D000DF92EF92FF920F931F93CF93DF936C0106
:1002E0007A018B01C0E0D0E0CE15DF0589F0D8019E
:1002F0006D918D01D601ED91FC910190F081E02D81
:10030000C6010995892B11F47E0102C02196ECCF1C
:10031000C701DF91CF911F910F91FF90EF90DF9078
:10032000CF900895089580E090E00895833081F0A3
:1003300028F4813099F08230A1F008958730A9F037
:100340008830B9F08430D1F4809180008F7D03C073
:10035000809180008F7780938000089584B58F7797
:1003600002C084B58F7D84BD08958091B0008F77E1
:1003700003C08091B0008F7D8093B00008951F93DB
:10038000CF93DF93282F30E0F901E255FF4F84919E
:10039000F901E656FF4FD491F901EA57FF4FC49196
:1003A000CC23C9F0162F81110E949601EC2FF0E0AA
:1003B000EE0FFF1FEE58FF4FA591B4918FB7F89441
:1003C000111105C09C91ED2FE095E92302C0EC913D
:1003D000ED2BEC938FBFDF91CF911F910895CF93B9
:1003E000DF9390E0FC01E656FF4F2491FC01EA57B1
:1003F000FF4F8491882361F190E0880F991FFC01E1
:10040000E859FF4FC591D491FC01EE58FF4FA591DB
:10041000B491611109C09FB7F89488812095822317
:100420008883EC912E230BC0623061F49FB7F8945F
:100430003881822F809583238883EC912E2B2C93F7
:100440009FBF06C08FB7F894E8812E2B28838FBFFB
:10045000DF91CF9108953FB7F89480914901909131
:100460004A01A0914B01B0914C0126B5A89B05C053
:100470002F3F19F00196A11DB11D3FBFBA2FA92F23
:10048000982F8827820F911DA11DB11DBC01CD01A0
:1004900042E0660F771F881F991F4A95D1F708958C
:1004A0008F929F92AF92BF92CF92DF92EF92FF9284
:1004B0006B017C010E942B024B015C01C114D10431
:1004C000E104F104F1F00E942B02DC01CB01881958
:1004D0009909AA09BB09883E9340A105B10570F3AB
:1004E00021E0C21AD108E108F10888EE880E83E005
:1004F000981EA11CB11CC114D104E104F10419F728
:10050000DDCFFF90EF90DF90CF90BF90AF909F90A6
:100510008F900895009769F0FC0101900020E9F7A1
:100520003197AF01481B590BBC018DE491E00C944D
:10053000670180E090E008958F929F92AF92BF9202
:100540000F931F93CF93DF93CDB7DEB7A1970FB66D
:10055000F894DEBF0FBECDBF19A2423008F44AE0C6
:100560008E010F5D1F4F842E912CA12CB12CA50163
:1005700094010E945808E62FB901CA0101501109DF
:10058000EA3014F4E05D01C0E95CD801EC93232B60
:10059000242B252B61F7C8010E948A02A1960FB671
:1005A000F894DEBF0FBECDBFDF91CF911F910F91A9
:1005B000BF90AF909F908F900895DF92EF92FF923F
:1005C0000F931F93CF93DF93C7E0D0E0E12C01E0BE
:1005D00010E060E08091EA010E94BF018FE99FE096
:1005E0000197F1F700C000002091EB0130E0F90124
:1005F000E255FF4F8491F901E656FF4FD490F9017F
:10060000EA57FF4FF490FF2071F081110E9496018C
:10061000EF2DF0E0EE0FFF1FE458FF4FA591B491CE
:10062000EC91ED21B9F461E08091EA010E94BF01F3
:100630008FE99FE00197F1F700C00000219708F0D3
:10064000C8CF8E2DDF91CF911F910F91FF90EF902A
:10065000DF900895C8010C2E01C0880F0A94EAF7B4
:10066000E82AE1CFCF93DF9360E08091EC010E9414
:10067000BF018FE99FE00197F1F700C000000E94E1
:10068000DD02C82FD0E0DC2FCC270E94DD02C82B72
:1006900061E08091EC010E94BF01C2FD11C0BE016A
:1006A00083E0769567958A95E1F780E090E00E9477
:1006B0002F0720E030E040E85EE30E94E60704C038
:1006C00060E070E080EC9FE7DF91CF9108954F925A
:1006D0005F926F927F928F929F92AF92BF92CF92D2
:1006E000DF92EF92FF926B017C019B01AC010E94B3
:1006F0005308882319F082E191E01AC0460157019E
:10070000E894B7F82FEF3FEF4FE75FE7C501B4017B
:100710000E945308811110C02FEF3FEF4FE75FE7B2
:10072000C501B4010E948906181634F486E191E0EF
:100730000E948A027C018FC02FEF3FEF4FE75FE4FA
:10074000C701B6010E94E10718161CF48AE191E086
:10075000EFCF2FEF3FEF4FE75FECC701B6010E94ED
:10076000890687FDF3CF20E030E0A901C701B6017B
:100770000E94890687FF11C0E0914D01F0914E0162
:100780000190F081E02D6DE28DE491E009955C012E
:10079000F7FAF094F7F8F09402C0A12CB12C2AE0FB
:1007A00037ED43EA5BE3C701B6010E941D062B014A
:1007B0003C010E9400076B017C010E942F079B01F6
:1007C000AC01C301B2010E941C062B013C014AE0AE
:1007D000C701B6010E949C027C01EA0CFB1CE0915F
:1007E0004D01F0914E010190F081E02D6EE28DE41B
:1007F00091E00995E80EF91E20E030E040E251E476
:10080000C301B2010E94E6072B013C010E940007D0
:100810004B01A12CB12C4AE0C501B4010E949C02FD
:10082000E80EF91EC501B4010E942F079B01AC011F
:10083000C301B2010E941C0620E030E040E251E416
:100840000E94E6070E94000780E090E04AE00E94D4
:100850009C02E80EF91E8EE191E00E948A028E0D44
:100860009F1DFF90EF90DF90CF90BF90AF909F9033
:100870008F907F906F905F904F9008950E948008B6
:100880001F920F920FB60F9211242F933F934F9305
:100890005F936F937F938F939F93AF93BF93EF93E8
:1008A000FF938DE491E00E94D300FF91EF91BF91FF
:1008B000AF919F918F917F916F915F914F913F91F8
:1008C0002F910F900FBE0F901F9018951F920F92AF
:1008D0000FB60F9211242F938F939F93EF93FF9353
:1008E000E0915D01F0915E018081E0916301F09102
:1008F000640182FD12C09081809166018F5F8F73C9
:1009000020916701821751F0E0916601F0E0E35B0E
:10091000FE4F958F8093660101C08081FF91EF911A
:100920009F918F912F910F900FBE0F901F90189550
:100930001F920F920FB60F9211242F933F938F9314
:100940009F93AF93BF938091450190914601A091F1
:100950004701B09148013091440123E0230F2D3726
:1009600020F40196A11DB11D05C026E8230F0296B3
:10097000A11DB11D20934401809345019093460130
:10098000A0934701B09348018091490190914A0199
:10099000A0914B01B0914C010196A11DB11D809316
:1009A000490190934A01A0934B01B0934C01BF9130
:1009B000AF919F918F913F912F910F900FBE0F900C
:1009C0001F901895CF93DF93EDE4F1E0138212822C
:1009D00088EE93E0A0E0B0E084839583A683B7839C
:1009E00084E091E09183808385EC90E09587848713
:1009F00084EC90E09787868780EC90E0918B808BE9
:100A000081EC90E0938B828B82EC90E0958B848BD1
:100A100086EC90E0978B868B118E128E138E148E3F
:100A2000CAEED1E089E0888387E08A8384E0898305
:100A300061E087E00E94EF0161E088810E94EF01A0
:100A400060E089810E94EF0161E08A81DF91CF91AE
:100A50000C94BF01789484B5826084BD84B58160B4
:100A600084BD85B5826085BD85B5816085BD809179
:100A70006E00816080936E001092810080918100F1
:100A800082608093810080918100816080938100E9
:100A9000809180008160809380008091B1008460AB
:100AA0008093B1008091B00081608093B00080910C
:100AB0007A00846080937A0080917A0082608093CB
:100AC0007A0080917A00816080937A0080917A0028
:100AD000806880937A001092C10061E08DE00E94EE
:100AE000EF01E0915D01F0915E0182E08083E09191
:100AF0005901F0915A011082E0915B01F0915C0183
:100B000080E1808310926501E0916101F0916201C2
:100B100086E08083E0915F01F091600180818061D7
:100B20008083E0915F01F091600180818860808323
:100B3000E0915F01F0916001808180688083E091A5
:100B40005F01F091600180818F7D808361E083E0AF
:100B50000E94EF0161E083E00E94BF0161E082E05A
:100B60000E94EF0160E082E00E94BF0181E291E01B
:100B70000E948A028EE191E00E948A0264EF71E095
:100B800080E090E00E9450028EE291E00E948A0292
:100B90000E9432030E94670383E391E00E948A026D
:100BA0000E94320320E030E040E151E40E94E60779
:100BB00020E030E040EA50E40E948E0620E030E081
:100BC00040E052E40E941D060E9467030E94320327
:100BD00020E030E040E151E40E94E60720E030E010
:100BE00040EA50E40E948E0620E030E040E052E40B
:100BF0000E941D0620E030E042ED52E40E94E10731
:100C000087FD0DC061E08DE00E94BF0188E391E0A7
:100C10000E948A028EE191E00E948A0204C060E094
:100C20008DE00E94BF0168EE73E080E090E00E94DA
:100C300050020E945D01A8CF5058BB27AA270E94EE
:100C400034060C94A7070E94990738F00E94A00769
:100C500020F039F49F3F19F426F40C9496070EF413
:100C6000E095E7FB0C949007E92F0E94B80758F332
:100C7000BA17620773078407950720F079F4A6F581
:100C80000C94DA070EF4E0950B2EBA2FA02D0B0171
:100C9000B90190010C01CA01A0011124FF27591BC1
:100CA00099F0593F50F4503E68F11A16F040A22FC7
:100CB000232F342F4427585FF3CF46953795279538
:100CC000A795F0405395C9F77EF41F16BA0B620B37
:100CD000730B840BBAF09150A1F0FF0FBB1F661F7E
:100CE000771F881FC2F70EC0BA0F621F731F841FC1
:100CF00048F4879577956795B795F7959E3F08F0E7
:100D0000B0CF9395880F08F09927EE0F97958795A8
:100D100008950E946C0708F481E008950E94A206DD
:100D20000C94A7070E94A00758F00E94990740F072
:100D300029F45F3F29F00C94900751110C94DB07C4
:100D40000C9496070E94B80768F39923B1F35523D2
:100D500091F3951B550BBB27AA27621773078407CE
:100D600038F09F5F5F4F220F331F441FAA1FA9F364
:100D700035D00E2E3AF0E0E832D091505040E69552
:100D8000001CCAF72BD0FE2F29D0660F771F881FB3
:100D9000BB1F261737074807AB07B0E809F0BB0BA6
:100DA000802DBF01FF2793585F4F3AF09E3F5105BA
:100DB00078F00C9490070C94DB075F3FE4F3983EC7
:100DC000D4F3869577956795B795F7959F5FC9F7A3
:100DD000880F911D9695879597F90895E1E0660F24
:100DE000771F881FBB1F621773078407BA0720F09D
:100DF000621B730B840BBA0BEE1F88F7E095089506
:100E00000E94C00788F09F5798F0B92F9927B751D3
:100E1000B0F0E1F0660F771F881F991F1AF0BA959E
:100E2000C9F714C0B13091F00E94DA07B1E008951B
:100E30000C94DA07672F782F8827B85F39F0B93F0D
:100E4000CCF3869577956795B395D9F73EF4909551
:100E50008095709561957F4F8F4F9F4F0895E894CF
:100E600009C097FB3EF490958095709561957F4FF2
:100E70008F4F9F4F9923A9F0F92F96E9BB279395A0
:100E8000F695879577956795B795F111F8CFFAF4B0
:100E9000BB0F11F460FF1BC06F5F7F4F8F4F9F4FE1
:100EA00016C0882311F096E911C0772321F09EE83F
:100EB000872F762F05C0662371F096E8862F70E0A5
:100EC00060E02AF09A95660F771F881FDAF7880F7F
:100ED0009695879597F90895990F0008550FAA0BD5
:100EE000E0E8FEEF16161706E807F907C0F012163D
:100EF0001306E407F50798F0621B730B840B950B40
:100F000039F40A2661F0232B242B252B21F4089594
:100F10000A2609F4A140A6958FEF811D811D089531
:100F200097F99F6780E870E060E008959FEF80EC9C
:100F3000089500240A94161617061806090608953F
:100F400000240A9412161306140605060895092EA5
:100F50000394000C11F4882352F0BB0F40F4BF2B14
:100F600011F460FF04C06F5F7F4F8F4F9F4F089554
:100F700057FD9058440F551F59F05F3F71F047954A
:100F8000880F97FB991F61F09F3F79F0879508952F
:100F9000121613061406551FF2CF4695F1DF08C04E
:100FA000161617061806991FF1CF8695710561056B
:100FB00008940895E894BB2766277727CB0197F913
:100FC00008950E946C0708F48FEF08950E94F907B6
:100FD0000C94A7070E94990738F00E94A00720F000
:100FE000952311F00C9490070C94960711240C94FF
:100FF000DB070E94B80770F3959FC1F3950F50E08F
:10100000551F629FF001729FBB27F00DB11D639FBA
:10101000AA27F00DB11DAA1F649F6627B00DA11D60
:10102000661F829F2227B00DA11D621F739FB00D06
:10103000A11D621F839FA00D611D221F749F332776
:10104000A00D611D231F849F600D211D822F762F0F
:101050006A2F11249F5750409AF0F1F088234AF0EC
:10106000EE0FFF1FBB1F661F771F881F9150504058
:10107000A9F79E3F510580F00C9490070C94DB0774
:101080005F3FE4F3983ED4F3869577956795B795DF
:10109000F795E7959F5FC1F7FE2B880F911D9695F9
:1010A000879597F908950E946C07880B990B08950E
:1010B000A1E21A2EAA1BBB1BFD010DC0AA1FBB1F5C
:1010C000EE1FFF1FA217B307E407F50720F0A21BCE
:1010D000B30BE40BF50B661F771F881F991F1A943B
:1010E00069F760957095809590959B01AC01BD0165
:1010F000CF010895EE0FFF1F0590F491E02D0994A4
:0E11000081E090E0F8940C948508F894FFCFFD
:10110E0000000000F40067018C003B01BD009B0055
:10111E00AF006E616E00696E66006F7666000D0A36
:10112E00004D4158363637352074657374004320B0
:10113E003D200046203D2000484F5420484F54206B
:04114E00484F5400B2
:00000001FF
